:100000000C9463000C94E0080C94B9080C948B00D9
:100010000C948B000C948B000C948B000C948B0034
:100020000C948B000C948B000C948B000C94260A7F
:100030000C948B000C948B000C948B000C948B0014
:100040000C946F080C948B000C948B000C948B0018
:100050000C948B000C948B000C948B000C948B00F4
:100060000C9407090C948B0000000000240027006A
:100070002A0000000000250028002B0000000000DE
:1000800023002600290004040404040404040202DA
:100090000202020203030303030301020408102007
:1000A0004080010204081020010204081020000012
:1000B0000008000201000003040700000000000027
:1000C0000000E20AAA1111241FBECFEFD8E0DEBF64
:1000D000CDBF12E0A0E0B1E0E4EFF8E202C005908D
:1000E0000D92A83DB107D9F724E0A8EDB2E001C018
:1000F0001D92A138B207E1F710E0C2E6D0E004C0DB
:100100002197FE010E946C12C136D107C9F70E94E7
:100110009E0B0C946D140C940000CF92DF92EF9222
:10012000FF92DC01A03282E0B807D4F5A53BB1050F
:1001300014F0A4EBB0E040917B0428E830E0241BED
:10014000310947FD3395220F331F220F331F6901F9
:10015000330FEE08FF0840917C0428E532E0241BB1
:10016000310947FD3395220F331F220F331F032E12
:10017000000C440B550B2C193D094E095F09B7FFC4
:1001800002C0B0E0A0E00E94F01124EB30E040E0BB
:1001900050E00E94C611C20ED31EE41EF51ED60109
:1001A000E0917A04EC3080F520917B0488E890E0BF
:1001B000821B910927FD9395880F991F880F991F1E
:1001C000A817B90784F020917C0488E592E0821B8F
:1001D000910927FD9395880F991F880F991FA817DC
:1001E000B9070CF4CD010297880F991F4FB7F89407
:1001F0002E2F30E0F901EE0FFF1FE20FF31FE05545
:10020000FC4F928381834FBFFF90EF90DF90CF90A0
:10021000089596E0899FD0011124AB52BC4F90966F
:100220007C936E935F9791E091969C939197E09168
:100230004204F091430490914104992339F030979E
:1002400051F0811108C08091F1030994309719F0A1
:100250005C968C91FACF089508950895AF92BF925D
:10026000CF92DF92EF92FF920F931F93CF93DF9382
:100270006C017B018B01040F151FEB015E01AE18B1
:10028000BF08C017D10759F06991D601ED91FC91D3
:100290000190F081E02DC6010995892B79F7C50100
:1002A000DF91CF911F910F91FF90EF90DF90CF9052
:1002B000BF90AF900895833081F028F4813099F099
:1002C0008230A9F008958730A9F08830C9F08430D1
:1002D000B1F4809180008F7D03C0809180008F7782
:1002E00080938000089584B58F7784BD089584B588
:1002F0008F7DFBCF8091B0008F778093B000089501
:100300008091B0008F7DF9CFCF93DF93282F30E01D
:10031000F901E255FF4F8491F901E656FF4FD49160
:10032000F901EA57FF4FC491CC23A1F081110E943B
:100330005B01EC2FF0E0EE0FFF1FE458FF4FA5919B
:10034000B491EC91ED2381E090E009F480E0DF913D
:10035000CF91089580E090E0FACF862F0C9484012D
:100360001F93CF93DF93282F30E0F901E255FF4F21
:100370008491F901E656FF4FD491F901EA57FF4FF6
:10038000C491CC23A9F0162F81110E945B01EC2FA0
:10039000F0E0EE0FFF1FEE58FF4FA591B4918FB71D
:1003A000F894EC91111108C0D095DE23DC938FBF37
:1003B000DF91CF911F910895DE2BF8CF862F642F08
:1003C0000C94B001CF93DF9390E0FC01E656FF4F11
:1003D00024918A579F4FFC0184918823C9F090E0B3
:1003E000880F991FFC01E859FF4FA591B491FC01BA
:1003F000EE58FF4FC591D49161110DC09FB7F8948D
:100400008C91209582238C938881282328839FBFF9
:10041000DF91CF910895623051F49FB7F8943C91E9
:10042000822F809583238C93E8812E2BEFCF8FB77B
:10043000F894EC912E2B2C938FBFEACF862F642F4C
:100440000C94E2013FB7F89480919003909191034E
:10045000A0919203B091930326B5A89B05C02F3FAE
:1004600019F00196A11DB11D3FBFBA2FA92F982FDA
:100470008827BC01CD01620F711D811D911D42E0D5
:10048000660F771F881F991F4A95D1F708958F929D
:100490009F92AF92BF92CF92DF92EF92FF924B0169
:1004A0005C010E9422026B017C010E9422026C19F5
:1004B0007D098E099F09683E734081059105A8F367
:1004C00021E0821A9108A108B10888EEC80E83E0E5
:1004D000D81EE11CF11C81149104A104B10429F778
:1004E000FF90EF90DF90CF90BF90AF909F908F9054
:1004F00008952FB7F89460918C0370918D038091CB
:100500008E0390918F032FBF08950F931F93CF9366
:10051000DF93C82FD62F86E0C89FF0011124EB523D
:10052000FC4F11A2878D90A181309105F1F058F018
:1005300082309105F1F1039709F440C0DF91CF912A
:100540001F910F9108956623C9F361E070E08C2F2D
:100550000E9409010E94790260932D0470932E0479
:1005600080932F0490933004E9CF0E947902009188
:100570002D0410912E0420912F0430913004AB01F2
:10058000BC01401B510B620B730B80913F04909197
:100590004004B0E0A0E084179507A607B70748F429
:1005A00062E070E08C2FDF91CF911F910F910C943E
:1005B000090163E070E0D111C1CFF4CF70E060E0D9
:1005C000F1CF6F927F928F929F92AF92BF92CF9214
:1005D000DF92EF92FF920F931F93CF93DF9381E00F
:1005E000809341040E9479020091310410913204F9
:1005F0002091330430913404AB01BC01401B510BFA
:10060000620B730B80913D0490913E04B0E0A0E03A
:1006100084179507A607B70708F014C1C0E08091BA
:100620003B04C81760F4E0913704F0913804EC0FF4
:10063000F11D62E080810E94E201CF5FF0CF712C5A
:10064000812C912C5401839480913C04781608F0FD
:100650005FC0072D10E0E0913904F0913A04E00FFB
:10066000F11F61E080810E94E201E0913904F09184
:100670003A04E00FF11F60E080810E94B001D501D3
:10068000C401072C04C0880F991FAA1FBB1F0A941E
:10069000D2F76C017C01E094F094612C80913B04D2
:1006A0006816F8F4C62DD0E0E0913704F0913804D4
:1006B000EC0FFD1F80810E9484012496CC0FDD1F6A
:1006C000CB52DC4F892B41F4888199818C299D295B
:1006D000998388836394E2CF888199818E219F21B9
:1006E000F7CFE0913904F0913A04E00FF11F61E097
:1006F00080810E94B0018091390490913A04080FE2
:10070000191F60E0F80180810E94E20173949CCF80
:10071000C5EDD3E0FE018FEF9FEF278D30A1232B96
:1007200021F4148E968F858F11A2369624E0E13144
:10073000F20799F7F12C96E0D92E80913B04F81638
:1007400008F050C0E12C0F2D10E0000F111F0352D4
:100750001C4F20913C04E21608F042C0F801608171
:1007600071810E2C02C0769567950A94E2F7F29E8D
:10077000900111242E0D311DE5EDF3E080E0458D53
:10078000568D2417350709F461C08F5F36968A307D
:10079000B1F760FF23C0E5EDF3E090E080E0448D29
:1007A000411117C0E0913504F0913604E20FF31FB8
:1007B0004081D89EF001D99EF00D1124EB52FC4FE0
:1007C000448F368F258F10A2178E61E00E9485021C
:1007D00005C0019636968A30910509F7E394B9CFA2
:1007E000F394ABCF10E089A18111182F2696F4E085
:1007F000C131DF07C1F70E94790260933104709321
:10080000320480933304909334041123D9F08091FF
:10081000F6038823B9F08091F4039091F5030197D2
:1008200089F48091F103DF91CF911F910F91FF9097
:10083000EF90DF90CF90BF90AF909F908F907F9080
:100840006F9008951092410480E0EDCF6170BECFAB
:100850000895089520911A03260F3327331F21325C
:100860003105ECF420916303FC0190E080E024303A
:1008700069F082E00895A0911A032191AC014650DD
:100880005D4FA40FB52FB11D2C930196861798F3D9
:1008900080911A03680F60931A0380E0089581E045
:1008A00008951092630381E08093620310923D03E8
:1008B00061E082E10E94B00161E083E10E94B00149
:1008C000E9EBF0E080818E7F808380818D7F808363
:1008D00088E48093B80085E48093BC000895CF93AA
:1008E000DF9391E09093F9028823B9F0C091B800AA
:1008F000D091BA008091BC008A7B8093BC0060E0FC
:1009000082E10E94B00160E083E10E94B0010E9498
:100910005104D093BA00C093B800DF91CF910895ED
:100920000895E0919B0380919A03E81730F4F0E07A
:10093000E752FD4F808190E008958FEF9FEF08957B
:1009400090919B0380919A032FEF3FEF981748F403
:10095000E92FF0E0E752FD4F208130E09F5F909358
:100960009B03C901089580919A0390919B03891B71
:10097000990B0895CF92DF92EF92FF920F931F93FE
:10098000CF93DF937C01CB018A012091690322235D
:1009900089F0EB016B01C40ED51ECC15DD0569F0A5
:1009A0006991D701ED91FC910190F081E02DC70193
:1009B0000995F3CF642F0E942A04C801DF91CF91DB
:1009C0001F910F91FF90EF90DF90CF900895CF93FC
:1009D000DF931F92CDB7DEB769832091690322238D
:1009E000F9F020919803203258F021E030E0FC012A
:1009F0003383228390E080E00F90DF91CF910895C0
:100A000080919903E82FF0E0E659FC4F998190839B
:100A10008F5F809399038093980381E090E0ECCFFF
:100A200061E0CE0101960E942A04F7CFCF92DF92B7
:100A3000EF92FF920F931F93CF93DF93FC01C4813A
:100A400021E020936903C0938A03109299031092C6
:100A500098038385682B84EA93E00E94E704D09191
:100A60009803D13208F092C00E9422026B017C01EF
:100A700080916303811165C082E08093630381E00C
:100A8000809362038FEF8093610310926003D09391
:100A90005F03AAE6B3E0EFE3F3E080E0D81385C09C
:100AA00010923E0380913E03CC0FC82BC0933E03AF
:100AB00080913D03813009F07CC010923D030E947B
:100AC00022026B017C0180913E038093BB008091E8
:100AD000650390916603A0916703B0916803892B29
:100AE0008A2B8B2B99F00E942202009165031091B2
:100AF000660320916703309168036C197D098E09A4
:100B00009F090617170728073907E0F18091BC00F5
:100B100083FDD9CF85EC8093BC000E9422026B013B
:100B20007C0180916303823009F445C080916103A8
:100B30008F3F61F180916103803241F180916103C7
:100B400025C08091650390916603A0916703B091E1
:100B50006803892B8A2B8B2B09F48ACF0E942202EF
:100B6000009165031091660320916703309168033B
:100B70006C197D098E099F09061717072807390781
:100B800008F076CF809164030E946F04109299035D
:100B90001092980310926903DF91CF911F910F91EA
:100BA000FF90EF90DF90CF9008959D9191938F5F8C
:100BB00075CF85EEB0CF8091650390916603A091CB
:100BC0006703B0916803892B8A2B8B2B09F4A9CF7B
:100BD0000E94220200916503109166032091670331
:100BE000309168036C197D098E099F090617170754
:100BF0002807390708F095CFC5CF90E080E0089529
:100C00008091A303811107C081E08093A30361E079
:100C10008DE00C94B0010895CF93DF93D62FC42FAD
:100C2000682F89E00E94B0016D2F88E00E94B0011A
:100C30006C2F87E0DF91CF910C94B0010F931F933D
:100C4000CF938C01C62F0E9416056C2F6460C801DB
:100C50000E9416056C2F6B7FC8010E94160583EC5D
:100C600090E00197F1F7CF911F910F9108950F93A5
:100C70001F93CF93DF938C01D62FC42F607F642BFB
:100C80000E941E0680E1D89FB00111246C2BC80180
:100C9000DF91CF911F910F910C941E0640E061E00F
:100CA0008EE694E00E9437068BE39FE10197F1F70F
:100CB0000895CF93DF93CDB7DEB728970FB6F8949A
:100CC000DEBF0FBECDBF98E0EDE1F1E0DE01119691
:100CD00001900D929A95E1F790917604961708F499
:100CE0006FEF262F30E0220F331F41E050E04C0F12
:100CF0005D1F240F351FF9016081680F606840E0B7
:100D00008EE694E028960FB6F894DEBF0FBECDBFF6
:100D1000DF91CF910C94370641E00E94370681E0C5
:100D200090E0089541E0682F8EE694E00E94370637
:100D300081E090E00895CF92DF92EF92FF920F93BF
:100D40001F93CF93DF93CDB7DEB7A1970FB6F8947B
:100D5000DEBF0FBECDBF9B01AC0119A28E010F5D9E
:100D60001F4F8AE0C82ED12CE12CF12CCA01B90109
:100D7000A70196010E942F12605DF80162938F0116
:100D8000211531054105510589F790E080E0309744
:100D900061F001900020E9F73197AF01401B510B42
:100DA000B8018EE694E00E942E01A1960FB6F89449
:100DB000DEBF0FBECDBFDF91CF911F910F91FF908E
:100DC000EF90DF90CF900895FC0101900020E9F7AB
:100DD0003197AF01481B590BBC018EE694E00C948F
:100DE0002E01CF93DF930E944E068DE491E00E9486
:100DF000E40664EF71E080E090E00E94470284EB3B
:100E000090E090939D0380939C03C0919C03D091AC
:100E10009D03D7FD1DC0CE010E948D0061E08CE0D6
:100E20000E94B00162E370E080E090E00E9447021F
:100E300060E08CE00E94B00162E370E080E090E04E
:100E40000E9447022597D0939D03C0939C03DDCF5A
:100E50000E944E0661E084E00E9459068EE591E012
:100E60000E94E40610929D0310929C03C0919C0383
:100E7000D0919D03C53BD105ECF4CE010E948D00BD
:100E800061E08CE00E94B00162E370E080E090E0FD
:100E90000E94470260E08CE00E94B00162E370E0D3
:100EA00080E090E00E9447022596D0939D03C09376
:100EB0009C03DCCF1092A30360E08DE00E94B001A0
:100EC000DF91CF910C944E06FC0124813581FB010A
:100ED0004481558124173507E1F4FC01808191811B
:100EE000FB01608171810097D1F061157105A1F45A
:100EF000232BC1F0FC01808190E008C0232B91F0EE
:100F0000FB01808190E091958195910921E0892BE9
:100F100009F020E0822F08950E945D14F7CF61153B
:100F2000710561F721E0F6CF0F931F93CF93DF9305
:100F3000EC0188819981009759F02A813B8126171D
:100F4000370730F081E0DF91CF911F910F91089525
:100F50008B016F5F7F4F0E949713009759F0998321
:100F600088831B830A832C813D81232B59F7FC0145
:100F70001082E8CF80E0E7CFEF92FF920F931F93AC
:100F8000CF93DF9300D0CDB7DEB78C0169831A828F
:100F9000FC01E480F580FFEFEF1AFF0AB7010E9421
:100FA0009407882381F0F801208131818481958123
:100FB000BE016F5F7F4F820F931F0E946614F8017E
:100FC000F582E48281E00F900F90DF91CF911F9125
:100FD0000F91FF90EF900895CF93DF93EC018881FC
:100FE0009981009711F00E940E13198218821D82B8
:100FF0001C821B821A82DF91CF910895EF92FF929B
:101000000F931F93CF93DF93EC017B01198218821A
:101010001B821A821D821C82FB0101900020E9F7CD
:1010200031978F01061B170BB8010E94940781119D
:1010300009C0CE01DF91CF911F910F91FF90EF90EA
:101040000C94EC071D830C83B70188819981DF9193
:10105000CF911F910F91FF90EF900C946614FC01BB
:1010600080819181009711F00C940E13089585ED05
:101070008093BC008091650390916603A091670303
:10108000B09168030796A11DB11D23E0B695A79501
:10109000979587952A95D1F72091BC0024FD03C030
:1010A0001092630308954091650350916603609127
:1010B000670370916803452B462B472B69F3009714
:1010C000A105B10541F025E32A95F1F7000001974C
:1010D000A109B109E1CF809164030C946F041F92C0
:1010E0000F920FB60F9211242F933F938F939F93DC
:1010F000AF93BF9380918C0390918D03A0918E0349
:10110000B0918F0330918B0323E0230F2D3758F5D7
:101110000196A11DB11D20938B0380938C039093A6
:101120008D03A0938E03B0938F03809190039091D1
:101130009103A0919203B09193030196A11DB11D5B
:101140008093900390939103A0939203B0939303A1
:10115000BF91AF919F918F913F912F910F900FBEB3
:101160000F901F90189526E8230F0296A11DB11D20
:10117000D2CF1F920F920FB60F9211242F933F934D
:101180004F935F936F937F938F939F93AF93BF938F
:10119000EF93FF93E0910201F09103010995FF9114
:1011A000EF91BF91AF919F918F917F916F915F91DF
:1011B0004F913F912F910F900FBE0F901F90189558
:1011C0001F920F920FB60F9211242F933F934F93BC
:1011D0005F936F937F938F939F93AF93BF93EF939F
:1011E000FF93E0910001F09101010995FF91EF91CA
:1011F000BF91AF919F918F917F916F915F914F912F
:101200003F912F910F900FBE0F901F9018951F9236
:101210000F920FB60F9211242F933F934F935F932A
:101220006F937F938F939F93AF93BF93EF93FF93AE
:101230008091B900887F803609F44AC0F0F5883281
:1012400009F4A7C018F5803109F49BC0B8F48823CD
:1012500009F4F9C0883009F494C0FF91EF91BF916F
:10126000AF919F918F917F916F915F914F913F913E
:101270002F910F900FBE0F901F901895883109F491
:1012800088C0803251F78093610314C0803409F420
:101290009DC040F48033B9F38833F9F6809361033D
:1012A00085ECB0C0803509F485C0883509F496C056
:1012B000883499F60E943708D0CF883909F48CC059
:1012C00038F5883729F050F4883611F0803729F640
:1012D00083E08093630310923C0357C0883809F47D
:1012E0007BC0803919F0803809F0B7CF80913C037A
:1012F000803208F071C0E0913C0381E08E0F809352
:101300003C038091BB00F0E0E45EFC4F80833DC075
:10131000803B39F0E0F4803A09F479C0883A09F06A
:101320009CCF84E08093630310921B0310921A03F6
:10133000E0919603F0919703099580911A0381112A
:101340000FC081E080931A031092FA0209C0803C1A
:1013500009F4A6CF883C09F4A3CF883B09F07DCFE0
:10136000E0911B0381E08E0F80931B03F0E0E650B9
:10137000FD4F80818093BB0090911B0380911A03E5
:1013800029C080913E038093BB0085EC8093BC0014
:1013900064CF9091600380915F03981758F5E091B6
:1013A000600381E08E0F80936003F0E0E15CFC4F0E
:1013B0008081E9CFE091600381E08E0F809360032C
:1013C0008091BB00F0E0E15CFC4F80839091600372
:1013D00080915F039817C8F285E8D8CFE091600349
:1013E00081E08E0F809360038091BB00F0E0E15CB0
:1013F000FC4F80838091620381115CCF81E08093F8
:101400003D0384EA8093BC001092630326CF85ECF1
:101410008093BC001092630380913C03803230F4CF
:10142000E0913C03F0E0E45EFC4F108260913C03ED
:1014300070E0E0919403F09195038CE193E00995BD
:1014400010923C030ACF1092610334CF1F920F9287
:101450000FB60F9211242F933F934F935F936F9387
:101460007F938F939F93AF93BF93CF93DF93EF932C
:10147000FF938091D802C091D403D0E087FF24C0AD
:1014800010928500109284008091D8028F5F809323
:10149000D8028091D802082E000C990B8C179D075A
:1014A00024F48091D8028C30C4F180918400909112
:1014B0008500049680349C4908F47AC080918400A9
:1014C00090918500049676C08091D802082E000C79
:1014D000990B8C179D07C4F6E091D8028E2FEE0F62
:1014E000990BFC01EE0FFF1FE80FF91FE055FC4FB1
:1014F000808186FFC9CFE091D8028E2FEE0F990B25
:10150000FC01EE0FFF1FE80FF91FE055FC4F808133
:1015100060E08F730E94B001B7CF209184003091BA
:101520008500E091D8028E2FEE0F990BFC01EE0F93
:10153000FF1FE80FF91FE055FC4F81819281820F58
:10154000931F9093890080938800E091D8028E2F9A
:10155000EE0F990BFC01EE0FFF1FE80FF91FE0558E
:10156000FC4F808186FF11C0E091D8028E2FEE0FD4
:10157000990BFC01EE0FFF1FE80FF91FE055FC4F20
:10158000808161E08F730E94B001FF91EF91DF9144
:10159000CF91BF91AF919F918F917F916F915F910B
:1015A0004F913F912F910F900FBE0F901F90189564
:1015B00080E49CE990938900809388008FEF80936A
:1015C000D802E3CF1092A7031092A60388EE93E00F
:1015D000A0E0B0E08093A8039093A903A093AA038E
:1015E000B093AB0389E291E09093A5038093A403A9
:1015F0008091D4038C3008F09DC091E0980F9093B7
:10160000D40380937A0490E0FC01EE0FFF1FE80FF3
:10161000F91FE055FC4F88EB9BE092838183109289
:1016200071041092700485E491E090936F048093AC
:101630006E048FE38093720480E18093770482E0EC
:1016400080937804109279046BE671E08CE594E065
:101650000E94FE0760E771E082E694E00E94FE07C8
:1016600065E771E088E694E00E94FE076AE771E0B2
:101670008AE494E00E94FE0761E871E080E594E06E
:101680000E94FE0768E871E086E594E00E94FE078C
:1016900060E672E084E494E00E94FE071092D703B3
:1016A0001092DB031092DA031092DC038BE391E0DB
:1016B0009093D6038093D503E1EFF3E01082148278
:1016C00013821582369684E0ED32F807B9F787E089
:1016D00091E0909338048093370484E091E09093F4
:1016E0003A048093390484E080933B0483E0809340
:1016F0003C048BE091E090933604809335048AE0BB
:1017000090E090933E0480933D0484EF91E09093A9
:10171000400480933F0410924304109242041092BC
:101720003104109232041092330410923404109257
:10173000410408958FEF80937A0471CFCF93DF93A4
:1017400000D000D000D0CDB7DEB7789484B58260E9
:1017500084BD84B5816084BD85B5826085BD85B555
:10176000816085BD80916E00816080936E001092D3
:10177000810080918100826080938100809181004E
:1017800081608093810080918000816080938000DF
:101790008091B10084608093B1008091B00081603D
:1017A0008093B00080917A00846080937A00809169
:1017B0007A00826080937A0080917A0081608093C1
:1017C0007A0080917A00806880937A001092C1003C
:1017D00061E089E00E94E20161E088E00E94E201AC
:1017E00061E087E00E94E20161E08CE00E94E2019A
:1017F00061E08DE00E94E20160E083E00E94E2018E
:1018000080E096E09093030180930201809169004B
:101810008C6080936900E99A80917A048C3008F09A
:1018200051C061E08AE00E94E20180917A04282F91
:1018300030E0F901EE0FFF1FE20FF31FE055FC4F00
:101840009081907C9A60908310927B0410927C042B
:101850002CE0622F0E946012829FB001112430E0C0
:1018600020E0AB01420F531FFA01EE0FFF1FE40F00
:10187000F51FE055FC4F908196FD16C02F5F3F4F3E
:101880002C30310571F781110FC01092800082E079
:10189000809381001092850010928400B19A80910B
:1018A0006F00826080936F00E0917A048E2F90E049
:1018B000FC01EE0FFF1FE80FF91FE055FC4F808180
:1018C0008064808310929B0310929A031092990374
:1018D000109298030E9451048CE291E09093970338
:1018E000809396038DE291E0909395038093940307
:1018F0001092730480917804823018F098E09093ED
:1019000073048093760462E370E080E090E00E94CC
:101910004702609179048EE694E00E94160568EE15
:1019200073E080E090E00E94470260E38EE694E07E
:101930000E941E060BE416E4C8010197F1F760E36C
:101940008EE694E00E941E06C8010197F1F760E35D
:101950008EE694E00E941E0683E592E00197F1F77F
:1019600060E28EE694E00E941E066091730460625D
:1019700040E08EE694E00E94370684E08093740491
:1019800040E06CE08EE694E00E9437060E944E062E
:1019900082E08093750440E066E08EE694E00E9469
:1019A000370640E062E08EE694E00E9437068BE363
:1019B0009FE10197F1F788E08093790460E08EE67B
:1019C00094E00E94160560E084E00E9459068FE8CA
:1019D00091E00E94E40668EB7BE080E090E00E94EA
:1019E00047020E944E0698EE892E93E0992EA12C74
:1019F000B12C8091A30381110E94F10650E040E0D8
:101A000070E060E090E080E00E940C061092A2037B
:101A1000F12CE12C8091A20381115CC08091A30381
:101A200081110E94F10660E080E00E9459068AE977
:101A300091E00E94E40661E084E00E94590687EA92
:101A400091E00E94E40660E672E0CE0101960E94F9
:101A5000FE070E94E102182F8093A103882309F456
:101A600028C20E9479022B013C01612FCE01019610
:101A70000E94BC070E944E06812F0E94920664EFCE
:101A800071E080E090E00E94470201E010E0809168
:101A9000A303882309F458C00E94F10681E08093D3
:101AA000A00380919F03882309F4B3C010929F0381
:101AB0000E944E0680EF91E00E94E40668EE73E01B
:101AC00080E090E00E9447020E944E06CE010196FF
:101AD0000E942F088091A30381110E94F1061092A9
:101AE0009E030E9479022B013C01312C212C809114
:101AF000A203882309F180919E0381111DC080916A
:101B0000A303882309F4DAC10E94F1061092A0030E
:101B10008BE392E00E94E40661E082E00E945906B5
:101B20008BE092E00E94E40668EE73E080E090E0D3
:101B30000E9447020E944E0640E050E0452B09F407
:101B400058CF0E94000055CF0E9479026419750990
:101B500086099709613375478105910590F081E009
:101B600080939F030E944E0681EB91E00E94E40661
:101B700068EE73E080E090E00E9447020E944E060B
:101B800090CF8D819E81892BA9F068EB71E08981CE
:101B90009A810E945D14892B69F40E944E068AEB9B
:101BA00091E00E94E40661E083E00E94590683EC24
:101BB00091E0DCCF0E94E102D82E8093A10388231C
:101BC000B9F03AE2831749F3682FCE0101960E94DB
:101BD000BC0760E0802F0E9459068D2D0E9492065E
:101BE00064EF71E080E090E00E9447020F5F1F4FBA
:101BF0000530110509F04BCF0E944E068FEC91E0A5
:101C00000E94E40661E080E00E94590680EE91E0C7
:101C1000ADCF8091A0038823B1F08DEF91E00E94B9
:101C2000E40661E082E00E9459068BE092E00E94A7
:101C3000E40668EE73E080E090E00E9447020E94B4
:101C40004E061092A1038091A003811130C18CE552
:101C5000C82E84E0D82E10E000E08091A30381110B
:101C60000E94F106BE016F5F7F4FC6010E946407AC
:101C7000882309F4F6C00E944E0660E084E00E94CA
:101C8000590685E192E00E94E40681E08093A20378
:101C900041E050E070E060E090E080E00E940C06DF
:101CA00068EE73E080E090E00E9447020E944E06DA
:101CB00046E0409FF001419FF00D1124E65BFB4F91
:101CC000008111810115110549F0C480D580B6014C
:101CD00084E494E00E9494078111B7C084E494E006
:101CE0000E94EC078091A203811133C00E944E062E
:101CF00060E084E00E9459068FE192E00E94E406D1
:101D000050E040E070E060E081E090E00E940C066E
:101D100061E08CE00E94B00164EF71E080E090E04F
:101D20000E9447020E944E0650E040E070E060E0F2
:101D300090E080E00E940C068FEFE81AF80A60E05D
:101D40008CE00E94B00164EF71E080E090E00E94BE
:101D5000470293E0E916F10409F0A9C00E944E067B
:101D60008BE292E00E94E40661E084E00E94590662
:101D700050E040E070E060E081E090E00E940C06FE
:101D80000E9479026B017C010E947902C616D70677
:101D9000E806F90609F46FC00E9479026C197D0902
:101DA0008E099F09683179478105910508F08CCE2D
:101DB00061E080E00E9459060E947902C616D706AB
:101DC000E806F90609F468C00E9479026C197D09D9
:101DD0008E099F09A50194010E942F12CA01B90121
:101DE0000E949B068091A303882331F00E94F10694
:101DF0008BE292E00E94E40661E08CE00E94B00178
:101E00006CE271E080E090E00E94470260E08CE0CC
:101E10000E94B00168EC70E080E090E00E94470210
:101E200061E08CE00E94B0016CE271E080E090E043
:101E30000E94470260E08CE00E94B00168EC70E014
:101E400080E090E00E9447029FCFD0924904C09268
:101E50004804B80180914404909145040E9466149E
:101E600041CF0F5F1F4F56E0C50ED11C0330110547
:101E700009F0F3CE37CF0E947902A7019601261B05
:101E8000370B480B590BDA01C90188319947A10575
:101E9000B10508F019CE8CCF0E947902A7019601F6
:101EA000261B370B480B590BCA01B90193CF10926F
:101EB000A003CE0101960E942F08ACCD0E947902AA
:101EC000641975098609970961337547810591057C
:101ED00088F00E944E0683EB91E00E94E40688E4BD
:101EE00092E00E94E40668EE73E080E090E00E94D9
:101EF000470222CE60E080E00E94590681E592E030
:101F00000E94E40661E080E00E94590681E692E0CA
:101F10000E94E40660E672E0CE0101960E94FE0790
:101F20000E94E102182F8093A103882309F40DC2B7
:101F30000E9479026B017C01612FCE0101960E9403
:101F4000BC070E944E068AE20E94920664EF71E08E
:101F500080E090E00E94470201E010E08091A3033E
:101F6000882379F10E94F10681E08093A0038BE33E
:101F700092E00E94E40661E082E00E9459068BE054
:101F800092E00E94E40668EE73E080E090E00E9438
:101F900047020E944E0680919F03882309F47FC068
:101FA00010929F030E944E0680EF91E00E94E4068B
:101FB00068EE73E080E090E00E9447020E944E06C7
:101FC00074C00E9479026C197D098E099F096133E2
:101FD00075478105910540F081E080939F030E9441
:101FE0004E0681EB91E0CDCF8D819E81892BA9F0AA
:101FF00068EB71E089819A810E945D14892B69F4F4
:102000000E944E068FE692E00E94E40661E084E0C2
:102010000E94590683EC91E0B4CF0E94E1028093C4
:10202000A103882359F18A32A9F40E944E068EE753
:1020300092E00E94E40661E084E00E94590683EC8D
:1020400091E00E94E40668EE73E080E090E00E9478
:102050004702A1CF682FCE0101960E94BC0760E025
:10206000802F0E9459068AE20E94920664EF71E076
:1020700080E090E00E9447020F5F1F4F073011057C
:1020800009F06CCF0E944E068EE892E00E94E406B2
:1020900061E080E00E9459068EE992E0D2CF809103
:1020A000A003882339F01092A003CE0101960E946C
:1020B0002F0842CD64E474E0CE0101960E946407CB
:1020C000882309F47FC00E944E0688EA92E00E94AD
:1020D000E40681E080939E0350E040E061E070E020
:1020E00090E080E00E940C0668EE73E080E090E0F3
:1020F0000E9447020E944E0661E086E00E94590657
:102100008AEB92E00E94E40684EB90E090939D03BA
:1021100080939C0300919C0310919D0317FD1EC0AA
:10212000C8010E948D0061E08CE00E94B00162E372
:1021300070E080E090E00E94470260E08CE00E9446
:10214000B00162E370E080E090E00E944702055039
:10215000110910939D0300939C03DCCF0E944E064F
:1021600061E084E00E9459068EE591E00E94E40659
:1021700010929D0310929C0300919C0310919D036B
:10218000053B11050CF01ACFC8010E948D0061E0DB
:102190008CE00E94B00162E370E080E090E00E9479
:1021A000470260E08CE00E94B00162E370E080E0F2
:1021B00090E00E9447020B5F1F4F10939D03009316
:1021C0009C03DACF0E944E0685EC92E00E94E40662
:1021D00041E050E070E060E081E090E00E940C0699
:1021E00061E08CE00E94B00164EF71E080E090E07B
:1021F0000E94470241E050E070E060E090E080E043
:102200000E940C069FEF291A390A0E944E0660E0D0
:102210008CE00E94B00164EF71E080E090E00E94E9
:10222000470223E02216310409F08FC00E944E06B7
:102230008BE292E00E94E40650E040E070E060E053
:1022400081E090E00E940C060E9479026B017C0103
:102250000E947902C616D706E806F90609F459C0A5
:102260000E9479026C197D098E099F0968317947AE
:102270008105910508F0A2CE61E080E00E94590638
:102280000E947902C616D706E806F90609F452C07C
:102290000E9479026C197D098E099F09A50194019C
:1022A0000E942F12CA01B9010E949B068091A303CC
:1022B000882331F00E94F1068BE292E00E94E4064E
:1022C00061E08CE00E94B0016CE271E080E090E09F
:1022D0000E94470260E08CE00E94B00168EC70E070
:1022E00080E090E00E94470261E08CE00E94B00133
:1022F0006CE271E080E090E00E94470260E08CE0D8
:102300000E94B00168EC70E080E090E00E9447021B
:102310009FCF0E947902A7019601261B370B480B1D
:10232000590BDA01C90188319947A105B10508F0B7
:1023300045CEA2CF0E947902A7019601261B370B3A
:10234000480B590BCA01B901A9CFCE0101960E94D1
:102350002F08CDCB84E494E00E942F0886E594E01A
:102360000E942F0880E594E00E942F088AE494E000
:102370000E942F0888E694E00E942F0882E694E0ED
:102380000E942F088CE594E00C942F08052E97FBF3
:102390001EF400940E94DD1157FD07D00E942F12F9
:1023A00007FC03D04EF40C94DD1150954095309508
:1023B00021953F4F4F4F5F4F0895909580957095B1
:1023C00061957F4F8F4F9F4F08950E945112A59F97
:1023D000900DB49F900DA49F800D911D1124089520
:1023E000B7FF0C94E5110E94E511821B930B089531
:1023F0002F923F924F925F926F927F928F929F9215
:10240000AF92BF92CF92DF92EF92FF920F931F9302
:10241000CF93DF93CDB7DEB7CA1BDB0B0FB6F894B3
:10242000DEBF0FBECDBF09942A88398848885F84F3
:102430006E847D848C849B84AA84B984C884DF8064
:10244000EE80FD800C811B81AA81B981CE0FD11D48
:102450000FB6F894DEBF0FBECDBFED010895A1E227
:102460001A2EAA1BBB1BFD010DC0AA1FBB1FEE1F0E
:10247000FF1FA217B307E407F50720F0A21BB30B59
:10248000E40BF50B661F771F881F991F1A9469F7D5
:1024900060957095809590959B01AC01BD01CF0131
:1024A0000895A29FB001B39FC001A39F700D811D2D
:1024B0001124911DB29F700D811D1124911D08954D
:1024C000991B79E004C0991F961708F0961B881F86
:1024D0007A95C9F780950895EE0FFF1F0590F49146
:1024E000E02D09940F931F93CF93DF9382309105D2
:1024F00010F482E090E0E0917F04F091800430E0FD
:1025000020E0B0E0A0E0309799F42115310509F4FE
:102510004AC0281B390B24303105D8F58A819B81AC
:102520006115710589F1FB0193838283FE0111C05E
:10253000408151810281138148175907E0F0481703
:10254000590799F4109761F012960C93129713960D
:102550001C933296CF01DF91CF911F910F91089577
:1025600000937F0410938004F4CF2115310551F0BE
:102570004217530738F0A901DB019A01BD01DF01C1
:10258000F801C1CFEF01F9CF9093800480937F04CD
:10259000CDCFFE01E20FF31F8193919322503109B9
:1025A00039832883D7CF20917D0430917E04232B5B
:1025B00041F42091190130911A0130937E04209347
:1025C0007D0420911701309118012115310541F446
:1025D0002DB73EB740911B0150911C01241B350BB8
:1025E000E0917D04F0917E04E217F307A0F42E1B26
:1025F0003F0B2817390778F0AC014E5F5F4F241767
:10260000350748F04E0F5F1F50937E0440937D04C2
:10261000819391939FCFF0E0E0E09CCFCF93DF9345
:102620000097E9F0FC01329713821282A0917F0497
:10263000B0918004ED0130E020E01097A1F42081FA
:102640003181820F931F20917D0430917E042817E1
:10265000390709F061C0F0937E04E0937D04DF91B7
:10266000CF910895EA01CE17DF07E8F54A815B8133
:102670009E0141155105B1F7E901FB83EA834991B8
:102680005991C40FD51FEC17FD0761F4808191812A
:102690000296840F951FE901998388838281938133
:1026A0009B838A83F0E0E0E012968D919C911397D2
:1026B0000097B9F52D913C911197CD010296820FAB
:1026C000931F20917D0430917E042817390739F635
:1026D000309751F51092800410927F04B0937E04DD
:1026E000A0937D04BCCFD383C28340815181840FEA
:1026F000951FC817D90761F44E5F5F4F8881998194
:10270000480F591F518340838A819B819383828321
:102710002115310509F0B0CFF0938004E0937F04D8
:102720009ECFFD01DC01C0CF13821282D7CFB0E073
:10273000A0E0EDE9F3E10C94FA118C01009751F45B
:10274000CB010E9472128C01C801CDB7DEB7E0E167
:102750000C941612FC01E60FF71F9C012250310960
:10276000E217F30708F49DC0D901CD91DC911197D0
:10277000C617D70798F0C530D10530F3CE010497BE
:102780008617970708F3C61BD70B2297C193D193DF
:102790006D937C93CF010E940E13D6CF5B01AC1AD0
:1027A000BD0A4C018C0E9D1EA0917F04B091800447
:1027B000512C412CF12CE12C109731F580917D04A6
:1027C00090917E048815990509F05CC0461657065D
:1027D00008F058C08091170190911801009741F4BA
:1027E0008DB79EB740911B0150911C01841B950B26
:1027F000E817F90708F055C0F0937E04E0937D04D4
:10280000F90171836083A0CF8D919C9111971296ED
:102810006C90129713967C901397A815B90559F5EB
:102820006C0142E0C40ED11CCA14DB0420F1AC01DF
:102830004A195B09DA011296159780F06282738259
:1028400051834083D9016D937C93E114F10471F0BD
:10285000D7011396FC93EE93129776CF22968C0FA6
:102860009D1FF90191838083F301EFCFF0938004E2
:10287000E0937F0469CF4816590608F42C017D01C6
:10288000D3019ACFCB010E9472127C01009749F0CC
:10289000AE01B8010E945414C8010E940E138701B2
:1028A00053CF10E000E050CFFB01DC0102C00190EB
:1028B0000D9241505040D8F70895FB01DC018D91F5
:1028C000019080190110D9F3990B0895FB01DC01E7
:1028D00001900D920020E1F7089510E0C2E6D0E0EB
:1028E00004C0FE010E946C122196C336D107C9F7BD
:0428F000F894FFCF8A
:1028F400280428040405060B020100313233343560
:10290400363738392A302300008104800000004023
:10291400001400540000000000E704BA04FD059010
:1029240004B304A0049104000000001E02DE01AD03
:1029340001000000008C062E01FD05290453756476
:1029440064656E20646F6F72204F70656E00446F13
:102954006F7220436C6F73652E2E0023303031006C
:1029640023303032002330303300313435323738BD
:10297400003335343639310037383935343100577E
:10298400454C434F4D4521212100456E746572200D
:10299400494420616E64005072657373205B2A5D44
:1029A400002E2E2E2E2E2E002A0049442063686508
:1029B400636B00696E2070726F6772657373004990
:1029C400442073686F756C64206E6F7420626500B8
:1029D4006D6F7265207468616E20666F7572210078
:1029E40054696D65204F75742E2E2E2E00506C6523
:1029F40061736520456E7465722000494420416707
:102A040061696E210056616C696420494421004962
:102A14006E76616C6964204944210054727920699E
:102A24006E2033307365632E2E2E00506C656173F7
:102A34006520456E7465720054696D65204F757428
:102A440000456E7465722070617373776F726420D1
:102A540000616E64207072657373205B2A5D007080
:102A6400617373776F726420636865636B00706170
:102A74007373776F726420636865636B20005061C1
:102A84007373776F7264206C656E67746800657821
:102A9400636565646564210050617373776F726464
:102AA40020436F72726563742100446F6F72204F0C
:102AB40070656E2100496E76616C696420506173A3
:082AC40073776F7264210000BA
:00000001FF
